:1000000019C033C032C031C030C02FC02EC02DC087
:100010002CC02BC02AC029C028C027C026C025C09C
:1000200024C023C022C021C020C01FC01EC01DC0CC
:100030001CC01BC011241FBECFEFD4E0DEBFCDBF5C
:1000400011E0A0E0B1E0EEE8F0E002C005900D9212
:10005000A030B107D9F711E0A0E0B1E001C01D92D6
:10006000A030B107E1F702D010C0CACF219A92E0C8
:1000700085B1892785B92FEF39E648E12150304015
:0E0080004040E1F700C00000F3CFF894FFCF3E
:00000001FF
